:020000040800F2
:10400000080600209D410008A5410008A7410008BE
:10401000A9410008AB410008AD41000800000000C4
:10402000000000000000000000000000AF41000898
:10403000B141000800000000B3410008B54100088C
:10404000B7410008B7410008B7410008B741000870
:10405000B7410008B7410008B7410008B741000860
:10406000B7410008B7410008B7410008B741000850
:10407000B7410008B7410008077F0008B7410008B2
:10408000B7410008577F0008B7410008B741000852
:10409000B7410008B7410008B7410008B741000820
:1040A000B7410008B7410008B7410008B741000810
:1040B000B14E0008B7410008B7410008B7410008F9
:1040C000B7410008B7410008B7410008B7410008F0
:1040D000B741000809510008B9510008B74100086C
:1040E000B7410008B7410008B7410008B7410008D0
:1040F000B7410008B7410008B7410008B7410008C0
:10410000000000000000000000000000B7410008AF
:10411000B7410008B7410008B7410008B74100089F
:10412000B7410008B7410008B7410008B74100088F
:10413000B7410008B741000800000000000000007F
:10414000B7410008B7410008B7410008000000006F
:10415000000000000000000000000000000000005F
:104160000000000000000000B7410008B74100084F
:10417000B74100080000000000000000000000003F
:1041800000000000B7410008DFF80CD003F028FF62
:1041900000480047DF4D0008080600200648804719
:1041A00006480047FEE7FEE7FEE7FEE7FEE7FEE71C
:1041B000FEE7FEE7FEE7FEE7877300088941000897
:1041C0000EB50121480502F0DFFE0121084602F08C
:1041D000F5FE684601F04DFC4FF4E150ADF80000EB
:1041E000C82001906946C00601F009FC0122114671
:1041F000900702F02AF90121880701F09BFC1C209E
:104200000121814042094FF0E02303EB8202C2F812
:10421000001100BF0EBD10B5002403F0D5FB102027
:10422000F7490871002048718871C871F549086024
:104230000DE0F548F3490968415CF14AF14800682E
:1042400008301154EF480068401CEE490860ED4802
:1042500000681028EDDB0020E94908760846807ADE
:1042600000F080004010497A01F0800140EAA1008E
:10427000E349097A01F0800140EAE100E049C979A7
:1042800001F0800140EA2110DD49897901F08001C7
:1042900040EA6110DA49497901F0800140EAA11051
:1042A000D749097940EAD110D54948760846407C7B
:1042B00000F080004010097C01F0800140EAA1007C
:1042C000CF49C97B01F0800140EAE100CC49897BFC
:1042D00001F0800140EA2110C949497B01F08001C9
:1042E00040EA6110C649097B01F0800140EAA11053
:1042F000C349C97A40EAD110C14988760846007E90
:1043000000F080004010C97D01F0800140EAA1006A
:10431000BB49897D01F0800140EAE100B849497D4F
:1043200001F0800140EA2110B549097D01F08001CA
:1043300040EA6110B249C97C01F0800140EAA11055
:10434000AF49897C40EAD110AD49C8760020AD491B
:10435000086010E0AA49AB4800680830085C00F02B
:104360007F01A74AA748006808301154A548006893
:10437000401CA4490860A34800681028EADB042018
:10438000A049086009E09E489E490968405C0444D1
:104390009C480068401C9B4908609A4800681C289B
:1043A000F1DBE44304F07F009549087710BD1CB5AC
:1043B0000121480502F0E8FD0121880402F0E4FD36
:1043C00001208DF8040003208DF8050000208DF8F1
:1043D00006000120009069468C4802F09EF90121F8
:1043E0008A4802F00EFA082000906946884802F0D8
:1043F00094F90821864802F004FA1CBD1CB501217D
:10440000480402F0C1FD00208DF804004FF4804004
:10441000009001208DF8070003208DF80500694603
:104420004FF0904002F079F91CBD1CB50121480401
:1044300002F0AAFD01208DF8040040030090032043
:104440008DF8050069464FF0904002F066F91CBDFA
:104450002DE9F04106460F460024002580206D49D5
:104460000870084646706C480068012802D16B4805
:10447000007848707F20674988700846C770664892
:104480000068012802D166480078C8701020614990
:1044900008717720487188710846C07900F0FC00E7
:1044A000C871AA2048770846007900F1090403E0A2
:1044B000002058490855641C1C2CF9DB5548807AAB
:1044C00000F0800040105349497A01F0800140EA31
:1044D000A1005049097A01F0800140EAE1004D490C
:1044E000C97901F0800140EA21104A49897901F037
:1044F000800140EA61104749497901F0800140EAB2
:10450000A1104449097940EAD11042494876084649
:10451000407C00F080004010097C01F0800140EAFE
:10452000A1003C49C97B01F0800140EAE100394922
:10453000897B01F0800140EA21103649497B01F076
:10454000800140EA61103349097B01F0800140EAB3
:10455000A1103049C97A40EAD1102E498876084620
:10456000007E00F080004010C97D01F0800140EA2B
:10457000A1002849897D01F0800140EAE100254938
:10458000497D01F0800140EA21102249097D01F0B6
:10459000800140EA61101F49C97C01F0800140EAB6
:1045A000A1101C49897C40EAD1101A49C87604241C
:1045B00006E01848005D00F07F0016490855641CAD
:1045C000182CF6DD042403E01248005D0544641C49
:1045D0001C2CF9DBED4305F07F000E490877002421
:1045E00004E00C48005D0F490855641C1E2CF8DBE4
:1045F00000200949086003F066FCBDE8F081000076
:104600006201002010000020F80100200010004886
:10461000000400484401002024000020280000205D
:104620002C000020DA010020F748407E10F0010F36
:1046300005D0F548007940F08000F3490871F24850
:10464000407E10F0020F05D0EF48407940F0800026
:10465000ED494871EC48407E10F0040F05D0EA485F
:10466000807940F08000E8498871E748407E10F08A
:10467000080F05D0E448C07940F08000E249C871D5
:10468000E148407E10F0100F05D0DF48007A40F07E
:104690008000DD490872DC48407E10F0200F05D014
:1046A000D948407A40F08000D7494872D648407EC9
:1046B00010F0400F05D0D448807A40F08000D249F5
:1046C0008872D148807E10F0010F05D0CE48C07AA4
:1046D00040F08000CC49C872CB48807E10F0020FB9
:1046E00005D0C948007B40F08000C7490873C64820
:1046F000807E10F0040F05D0C348407B40F080005E
:10470000C1494873C048807E10F0080F05D0BE48EC
:10471000807B40F08000BC498873BB48807E10F0ED
:10472000100F05D0B848C07B40F08000B649C87370
:10473000B548807E10F0200F05D0B348007C40F0D3
:104740008000B1490874B048807E10F0400F05D059
:10475000AD48407C40F08000AB494874AA48C07E18
:1047600010F0010F05D0A848807C40F08000A649D9
:104770008874A548C07E10F0020F05D0A248C07C06
:1047800040F08000A049C8749F48C07E10F0040F1C
:1047900005D09D48007D40F080009B4908759A48EF
:1047A000C07E10F0080F05D09748407D40F0800093
:1047B000954948759448C07E10F0100F05D0924876
:1047C000807D40F08000904988758F48C07E10F051
:1047D000200F05D08C48C07D40F080008A49C87504
:1047E0008948C07E10F0400F05D08748007E40F019
:1047F00080008549087670478448407E10F0010F9C
:1048000005D08248007940F08000804908717F48D7
:10481000407E10F0020F05D07C48407940F08000C7
:104820007A4948717948407E10F0040F05D07748E6
:10483000807940F08000754988717448407E10F09E
:10484000080F05D07148C07940F080006F49C871E9
:104850006E48407E10F0100F05D06C48007A40F092
:1048600080006A4908726948407E10F0200F05D028
:104870006648407A40F08000644948726348407E50
:1048800010F0400F05D06148807A40F080005F4909
:1048900088725E48807E10F0010F05D05B48C07AB8
:1048A00040F080005949C8725848807E10F0020FCD
:1048B00005D05648007B40F08000544908735348A7
:1048C000807E10F0040F05D05048407B40F08000FF
:1048D0004E4948734D48807E10F0080F05D04B4874
:1048E000807B40F08000494988734848807E10F002
:1048F000100F05D04548C07B40F080004349C87385
:104900004248807E10F0200F05D04048007C40F0E7
:1049100080003E4908743D48807E10F0400F05D06D
:104920003A48407C40F08000384948743748C07E9F
:1049300010F0010F05D03548807C40F080003349ED
:1049400088743248C07E10F0020F05D02F48C07C1A
:1049500040F080002D49C8742C48C07E10F0040F30
:1049600005D02A48007D40F0800028490875274876
:10497000C07E10F0080F05D02448407D40F0800034
:10498000224948752148C07E10F0100F05D01F48FD
:10499000807D40F080001D4988751C48C07E10F065
:1049A000200F05D01948C07D40F080001749C87518
:1049B0001648C07E10F0400F05D01448007E40F02D
:1049C0008000124908767047014609B9F020704707
:1049D000012901D11120FAE7022901D12220F6E7AD
:1049E000032901D1C320F2E7042901D14420EEE7D5
:1049F000052901D1A520EAE7062901D19620E6E79D
:104A0000072905D17720E2E762010020800100201C
:104A1000082901D18820DAE7092901D16920D6E7E0
:104A20000A2901D15A20D2E70B2901D1BB20CEE7B8
:104A30000C2901D13C20CAE70D2901D1DD20C6E7B0
:104A40000E2901D1EE20C2E70F2901D10F20BEE7C8
:104A50000120BCE700B5002200BF04E0FE48805CF6
:104A6000FE498854521C1E2AF8DB0120FC490860CC
:104A7000F948807800F00F01F748407861F31F1083
:104A8000F849086008460068F749097888427DD1EE
:104A9000F6480078142879DA0020F5490870F249C0
:104AA000097801F00F00FFF78FFFF1494870EE49D8
:104AB00009780809FFF788FFED498870ED48407ACA
:104AC000ED49086008460068EC490968401AEC495D
:104AD0000860E9480068E9490968401A3C2808DD8F
:104AE000E5480068E5490968401AC0F18000E449DA
:104AF0000860E1480068E1490968401A10F13C0F7C
:104B000007DADD480068DD490968401A8030DC4971
:104B10000860D9480068D9490860DA480088D8494F
:104B200009880844D7490880097801F00F00FFF789
:104B30004BFFCF49C870D3480078C0F30310FFF78C
:104B400043FFCB490871CF480088C0F30320FFF72B
:104B50003BFFC7494871CB490988080BFFF734FF71
:104B6000C3498871EE20C871C248807A10F0C00F26
:104B700001D1DD20C8714420BD490872C2480068D7
:104B800048B9F02048724420887200E0D0E0A520A7
:104B9000C87269200873BC480068012808D1442005
:104BA000B3494872BB2088729620C872F0200873FF
:104BB000B5480068022808D1F020AD4948723C2071
:104BC0008872A520C87296200873AF480068032831
:104BD00007D16920A649487288729620C872F020D1
:104BE0000873A9480068042808D19620A049487293
:104BF0000F2088728820C872F0200873A2480068CD
:104C0000052808D188209A494872F02088723C20F3
:104C1000C872882008739C480068062808D1A5201F
:104C20009349487269208872A520C8726920087368
:104C300095480068072807D10F208D49487288726F
:104C4000F020C8720F2008738F480068082807D129
:104C50000F20874948728872F020C8720F200873AD
:104C600089480068092805D10F2081494872887257
:104C7000C8720873844800680A2808D177207C49E4
:104C80004872EE208872BB20C872442008737E48A8
:104C900000680B2808D11120754948729620887247
:104CA0000F20C87244200873774800680C2808D188
:104CB0005A206F494872F02088723C20C872F02058
:104CC0000873714800680D2808D177206849487238
:104CD000BB2088729620C872F02008736A4800686A
:104CE0000E2808D13C2062494872692088729620BB
:104CF000C872F0200873644800680F2804D15C492A
:104D000048728872C87208735F490878FFF75CFEC2
:104D1000574948735C490968481CC11700EB117179
:104D20000911A0EB0111584B196001205749086087
:104D300000BD10B556480078C04355490870084674
:104D4000007800F07F0008705248007F09788842A0
:104D500044D180204F490870AA20487700204E494E
:104D600008600CE04B484C490968405C40494A4A9D
:104D70001268885448480068401C47490860464803
:104D800000681E28EEDB1E21002002F0E2FFFFF784
:104D900033FD40488078344908700020334908705A
:104DA0003C48807A3D49087080203A490870AA2022
:104DB00048770020384908600CE0364836490968D1
:104DC000415C2C48344A1268815433480068401CC6
:104DD00031490860304800681E28EEDB10BD02F043
:104DE000D2FA02F0F1FD4FF4164002F0F5FE02F0A7
:104DF0006EFF4FF4164002F0CDFF03F01EF8FFF7F0
:104E0000DFF94FF48041480300F046FDFFF7CFFA89
:104E1000FFF7F4FAFFF709FB0121214801F0F3FC49
:104E20000821204801F0EFFC4FF400514FF0904072
:104E300001F0E7FC0FE01C480068012802D10020C7
:104E40001949086019480068012804D10020174951
:104E50000860FFF76EFFEEE762010020DA01002034
:104E60002400002028000020210000200000002055
:104E7000BC010020E8000020500000205400002069
:104E8000580000204C000020480000205C0000205A
:104E9000640000208001002010000020010000209C
:104EA000001000480004004840000020600000207E
:104EB00010B5ED48006820B1EB480068401CEA4995
:104EC0000860E9480068042805DD0020E64908601C
:104ED0000E2102F03EFF4FF480414FF0904001F070
:104EE00078FC012854D10020E0490860E0490870AE
:104EF000E0490870E04800787F2810D1DF4800784A
:104F0000401CDE490870084600787F2801DB00203D
:104F100008700321D9480078FFF79AFA4EE0D84884
:104F2000006860B9D748007848B90020D1490870B6
:104F30000120CF490870D3490870D1490860D14891
:104F40000078012804D1D0480078401CCE49087070
:104F5000CD4800780A2804DA0321C7480078FFF713
:104F600077FAC94800780A2808DBC748007828285B
:104F700004DC0421C0480078FFF76AFAC2480078D0
:104F800064281BDD0020BF490870BF49087015E088
:104F9000B6480068401CB549086008460068B0F58E
:104FA000C87F02DDB948BA490860B248007810B934
:104FB0000120B04908707F20AF490870AD480078E3
:104FC000002804DDAB480078401CAA490870A948B5
:104FD0000078782807DD0020A64908700120A44940
:104FE0000870A8490870AB480078401CA9490870AF
:104FF0000821A94801F007FCA248007801281CD12B
:10500000A6490868C11700EB5171C910A0EBC10196
:10501000042903DC0821A04801F0F5FB9F4908683A
:10502000C11700EB5171C910A0EBC10104292EDB9F
:105030000821994801F0E5FB29E0964800781428FA
:105040000BDC9748007800F04400442805D09448D1
:10505000007800F08800882819D1904800681E2147
:1050600090FBF1F201FB12000F2803DC08218A48B3
:1050700001F0C9FB894800681E2190FBF1F201FB99
:1050800012000F2803DB0821834801F0BAFB844893
:10509000007810F0EE0F02D08248807AA8B18048E4
:1050A000007810F0CE0F03D07E48807A01280CD013
:1050B0007B48007810F0EC0F03D07A48807A022801
:1050C00003D07448007814280ADD0121764801F0E5
:1050D00098FB4FF400514FF0904001F092FB09E033
:1050E0000121714801F08FFB4FF400514FF09040C7
:1050F00001F089FB69480068401C6849086001218B
:10510000880701F0CEF910BD10B56849684800F075
:105110005CFB00283ED06549654800F07BFB644895
:1051200000F04FFA6349087008460078802806D1DD
:1051300000206149086061494877614908705D480D
:10514000007860495C4A126888545B48006804280B
:105150000CDB594800681C2808DA084656490968DB
:10516000405C57490978084455490870524800681E
:105170001E2804DA50480068401C4F4908604E4819
:1051800000681E2806D14F48407FAA2802D101207E
:105190004D4908604FF44071454800F03BFB4B49D6
:1051A000434800F037FB4A49414800F033FB494986
:1051B0003F4800F02FFB10BD10B53C49464800F0B9
:1051C00004FB00283ED03949434800F023FB424805
:1051D00000F0F7F94149087008460078802806D1A8
:1051E00000203F490860354948773E4908703B48F0
:1051F000007832493A4A12688854394800680428CD
:105200000CDB374800681C2808DA0846344909686E
:10521000405C3449097808443249087030480068D5
:105220001E2804DA2E480068401C2D4908602C48CE
:1052300000681E2806D12148407FAA2802D10120FB
:10524000294908604FF44071234800F0E3FA1F49F0
:10525000214800F0DFFA1E491F4800F0DBFA1D4923
:105260001D4800F0D7FA10BD5C000020700000203F
:105270008C0000208E000020210000202000002053
:10528000680000208D0000208F0000200400FA0537
:105290000CED00E000000020000400486C0000203D
:1052A00001000020F8010020001000480501050061
:1052B00000380140740000207800002080010020A8
:1052C0004400002062010020400000200003030091
:1052D0000003020000030100004400407C000020A5
:1052E00080000020640000206000002010B504460B
:1052F000F948844209D10121880301F079FE002197
:105300004FF4804001F074FE32E0F448844209D149
:105310000121480401F079FE00214FF4003001F032
:1053200074FE25E0EE48844209D10121880401F091
:105330006CFE00214FF4802001F067FE18E0E94880
:10534000844209D10121C80401F05FFE00214FF41D
:10535000002001F05AFE0BE0E348844208D101210D
:10536000080501F052FE00214FF4801001F04DFEBF
:1053700010BD2DE9F04190B004460D460027B84617
:105380000026206820F001002060666826F4405660
:10539000A86806436660266841F20C608643E968A7
:1053A000686808432969084306432660A66826F40E
:1053B000407668690643A66001A801F03CFBC64838
:1053C000844202D1DDF82C8013E0C448844202D12B
:1053D000DDF830800DE0C248844202D1DDF834802F
:1053E00007E0C048844202D1DDF8388001E0DDF8F2
:1053F0003C80206810F4004F0CD04FEA4800296828
:10540000B0FBF1F74FEA48002968B0FBF1F201FB6D
:10541000120607E02868B8FBF0F72868B8FBF0F13F
:1054200000FB11862868B6EB500F00D37F1C206864
:1054300010F4004F07D0C7F342064FF6F07107EAA9
:10544000010040EA0607A78110B0BDE8F0814FF4E3
:1054500016510160002141608160C1600C21016131
:1054600000214161704710B50022426822F4706249
:10547000D1E9003423438C682343CC6823431A4387
:10548000426010BD0021016041608160C1607047D1
:1054900021B1026842F00102026003E0026822F0DA
:1054A0000102026070471AB103680B43036002E017
:1054B00003688B430360704721B1026842F40042E5
:1054C000026003E0026822F400420260704721B1EA
:1054D000826842F40062826003E0826822F4006223
:1054E0008260704721B1426842F40022426003E0CA
:1054F000426822F400224260704721B1426842F4BF
:105500008022426003E0426822F4802242607047B9
:105510001AB143680B43436002E043688B43436026
:10552000704721B1426842F40042426003E04268A1
:1055300022F400424260704721B1426842F4000206
:10554000426003E0426822F4000242607047426910
:1055500002F07F42426142690A4342617047028A17
:1055600002F47F420282028A0A430282704721B11A
:10557000026842F00202026003E0026822F00202C6
:1055800002607047826822F44012826082680A4397
:105590008260704721B1426842F48012426003E0A9
:1055A000426822F4801242607047426822F4C002CE
:1055B000426042680A4342607047C1F308020285B4
:1055C00070470146888CC0F308007047426822F09B
:1055D0007F424260426842EA01624260704721B104
:1055E000026842F40052026003E0026822F40052B2
:1055F00002607047026822F40062026002680A4397
:1056000002607047426822F01002426042680A431A
:1056100042607047426822F02002426042680A43BA
:105620004260704721B1426842F48042426003E028
:10563000426822F480424260704721B1826842F0A1
:105640000802826003E0826822F0080282607047EC
:10565000028AD2B20282028A42EA012202827047A0
:1056600021B1826842F02002826003E0826822F069
:1056700020028260704721B1826842F0100282608D
:1056800003E0826822F0100282607047826822F490
:1056900060228260826842EA4142826070474269C9
:1056A00022F07F424261426942EA016242617047F0
:1056B000826822F00402826082680A438260704736
:1056C00021B1826842F00202826003E0826822F027
:1056D0000202826070470000003801400044004030
:1056E00000480040004C00400050004021B182685A
:1056F00042F48042826003E0826822F48042826049
:105700007047826822F40042826082680A438260A5
:105710007047026822F078720260026842EA4152E1
:1057200002607047026822F4F8120260026842EADE
:105730000142026070471AB183680B43836002E044
:1057400083688B4383607047826822F400528260D2
:1057500082680A4382607047F0B503460024002641
:10576000002500201846C1F30724CEB2012707FA0E
:1057700006F5022C01D1001D02E0032C00D10830F7
:105780001AB107682F43076002E00768AF4307605C
:10579000F0BD1AB1038B0B43038302E0038B8B43F1
:1057A00003837047826822F48052826082680A43D1
:1057B0008260704702460020D3690B4201D001206D
:1057C00000E0002070470162704770B502460B464A
:1057D0000024002100250020C3F30725D9B20126AB
:1057E00006FA01F1012D02D11668314006E0022DC2
:1057F00002D15668314001E0966831401C0C012608
:1058000006FA04F4D669344011B10CB1012000E06D
:10581000002070BD10B5002200230A0C012404FAF8
:1058200002F3036210BD000031490143314A1160A7
:10583000704770B5002100230F22C4780CB32D4CA3
:10584000246804F4E064C4F5E064210AC1F10403AF
:10585000CA40447804FA03F18478144021430901D2
:10586000254C0678A155047804F01F050124AC40AE
:1058700005786D114FF0E02606EB8505C5F800416F
:1058800009E0047804F01F050124AC401B4D0678A4
:10589000761145F8264070BD194A0A400243154B5F
:1058A0001B1F1A60704739B1124A121D1268024359
:1058B000104B1B1D1A6006E00E4A121D126882432F
:1058C0000C4B1B1D1A607047042808D14FF0E021D3
:1058D000096941F004014FF0E022116107E04FF047
:1058E000E021096921F004014FF0E02211617047C5
:1058F0000000FA050CED00E000E400E080E100E0CB
:1059000080FFFF1F10B50446FD48844208D10121E5
:10591000C01401F06DFB0021E01401F069FB6DE0A3
:10592000B4F1804F08D10121084601F06EFB00213F
:10593000012001F06AFB61E0F248844208D10121B4
:10594000022001F062FB0021022001F05EFB55E025
:10595000ED48844208D10121042001F056FB0021CA
:10596000042001F052FB49E0E848844208D10121BB
:10597000102001F04AFB0021102001F046FB3DE021
:10598000E348844208D10121202001F03EFB0021A0
:10599000202001F03AFB31E0DE48844208D10121A9
:1059A000401401F025FB0021601401F021FB25E0EB
:1059B000D948844209D10121080401F019FB0021D2
:1059C0004FF4803001F014FB18E0D448844209D130
:1059D0000121480401F00CFB00214FF4003001F0DC
:1059E00007FB0BE0CE48844208D10121880401F076
:1059F000FFFA00214FF4802001F0FAFA10BD0022D6
:105A00000288BF4B98420BD0C24B984208D0B0F1ED
:105A1000804F05D0BB4B984202D0BB4B984204D17B
:105A20004FF68F731A404B881A43B84B984207D0F1
:105A3000B74B984204D04FF6FF431A400B891A43E4
:105A400002804B68C3620B880385AD4B98420BD034
:105A5000B04B984208D0B04B984205D0AF4B98421B
:105A600002D0AF4B984201D18B7A03860123436168
:105A700070474FF0FF31416000210180018141807A
:105A8000817270470185426170470A460021018892
:105A90004FF68F7319401143018070474162704780
:105AA000C16270470146486A70470146088D7047D9
:105AB00021B1028842F00202028004E002884FF61F
:105AC000FD731A400280704721B1028842F004023F
:105AD000028004E002884FF6FB731A400280704790
:105AE00021B1028842F40062028004E002884FF291
:105AF000FF731A400280704721B1028842F0800291
:105B0000028004E002884FF67F731A4002807047DB
:105B100002884FF6F7731A40028002880A43028017
:105B2000704702884FF6FF431A40028002880A43FA
:105B30000280704721B1028842F00102028004E035
:105B400002884FF6FE731A400280704730B5002479
:105B500000220023056A25F001050562026A4368F8
:105B60008469704D2C4024F003040D682C4322F00E
:105B700002028D892A438D882A43614DA8420BD0A9
:105B8000644DA84208D0644DA84205D0634DA84298
:105B900002D0634DA8420FD122F00802CD892A43DA
:105BA00022F00402CD882A4323F4807323F4007387
:105BB0000D8A2B434D8A2B43436084618D68456376
:105BC000026230BD30B5002400220023056A25F0B2
:105BD00010050562026A43688469534D2C4024F421
:105BE00040740D6844EA052422F020028D8942EABF
:105BF00005128D8842EA0512414DA84202D0454D5A
:105C0000A84213D122F08002CD8942EA051222F087
:105C10004002CD8842EA051223F4806323F4006336
:105C20000D8A43EA85034D8A43EA85034360846114
:105C30008D688563026230BD30B5002400220023E8
:105C4000056A25F480750562026A4368C46924F018
:105C5000700424F003040D682C4322F400728D8933
:105C600042EA05228D8842EA0522254DA84202D04B
:105C7000284DA84213D122F40062CD8942EA0522C0
:105C800022F48062CD8842EA052223F4805323F473
:105C900000530D8A43EA05134D8A43EA0513436016
:105CA000C4618D68C563026230BD30B50022002337
:105CB0000024056A25F480550562036A4468C269B8
:105CC00022F4E04222F440720D6842EA052223F4F5
:105CD00000538D8943EA05338D8843EA0533084D27
:105CE000A84202D00B4DA84204D124F480440D8A6E
:105CF00044EA85144460C2618D680564036230BD66
:105D0000002C01400004004000080040001000404A
:105D100000140040003401400040014000440140B4
:105D2000004801408FFFFEFFFF8FFFFE30B50023CC
:105D300000220024056A25F480350562026A446861
:105D4000436D23F070030D682B4322F400328D89DC
:105D500042EA05428D8842EA0542FE4DA84202D041
:105D6000FD4DA84204D124F480340D8A44EA054450
:105D7000446043658D688565026230BD70B500235F
:105D800000220024056A25F480150562026A446831
:105D9000436D23F4E0430D6843EA052322F4001227
:105DA0008D8942EA05528D8842EA0552E94DA842A2
:105DB00002D0E94DA84207D124F400340D8A4FF6F1
:105DC000FF7606EA85452C43446043658D68C565CA
:105DD000026270BD21B1826D42F00052826503E023
:105DE000826D22F000528265704721B1826D42F0CF
:105DF0008042826503E0826D22F0804282657047B6
:105E000021B1826D42F00042826503E0826D22F092
:105E1000004282657047002101608180C1808160FD
:105E20008181C18101824182704770B503460020A3
:105E300000241846183001258D40ACB21D6AE64397
:105E4000B6B235401D6209B1082909D100EB6100E5
:105E50000568C24E354005600568154305600DE0D4
:105E60000D1F00EB55000568BD4E35400560056807
:105E70004FF6FF7606EA02263543056070BD4163A2
:105E8000704781637047C1637047016470478165E3
:105E90007047C16570470A4600218169AF4B1940C0
:105EA0001143816170470A4600218169AC4B19405A
:105EB00041EA0221816170470A460021C16921F04F
:105EC00070011143C16170470A460021C16921F484
:105ED000E04141EA0221C16170470A460021416D5B
:105EE00021F070011143416570470A460021416D60
:105EF00021F4E04141EA0221416570470A46002150
:105F0000816921F008011143816170470A4600212F
:105F1000816921F4006141EA0221816170470A46EA
:105F20000021C16921F008011143C16170470A468F
:105F30000021C16921F4006141EA0221C161704779
:105F40000A460021416D21F0080111434165704767
:105F50000A460021416D21F4006141EA02214165B8
:105F600070470A460021816921F0040111438161D3
:105F700070470A460021816921F4806141EA0221CB
:105F8000816170470A460021C16921F00401114373
:105F9000C16170470A460021C16921F4806141EA6C
:105FA0000221C16170470A460021816921F0800108
:105FB0001143816170470A460021816921F4004143
:105FC00041EA0221816170470A460021C16921F03E
:105FD00080011143C16170470A460021C16921F463
:105FE000004141EA0221C16170470A460021416D2A
:105FF00021F080011143416570470A460021416D3F
:1060000021F4004141EA02214165704782684FF660
:10601000F7731A40826082680A43826070470A46BA
:106020000021016A21F002011143016270470A4612
:106030000021016A21F008011143016270470A46FC
:106040000021016A21F0200141EA0211016270473A
:106050000A460021016A21F0800141EA0211016231
:1060600070470A460021016A21F4007141EA0221C9
:10607000016270470A460021016A21F4006141EA89
:106080000221016270470A460021016A21F4005191
:1060900041EA0231016270470A460021016A21F497
:1060A000003141EA0241016270470A460021016A5B
:1060B00021F4001141EA02510162704730B500231A
:1060C000012404FA01F3046A9C430462046A02FA9C
:1060D00001F52C43046230BD30B50023042404FADA
:1060E00001F3046A9C430462046A02FA01F52C433A
:1060F000046230BDC2694FF2FF331A40C261C26907
:106100004FF6FF7303EA01231A43C2617047F0B5EB
:106110000C461546002100220026076A4EF6FF7C39
:1061200007EA0C070762C769B9B2076ABAB24FF645
:10613000FF7707EA043640F6FF4739404FF6FF770E
:1061400007EA052739434FF6FF7707EA0337394354
:1061500008E00000002C0140003401408FFFFEFFEA
:10616000FF8FFFFE45F6FF773A4046F480573A43EB
:10617000C1610262F0BDC2694FF6F3731A40C26199
:10618000C2690A43C2617047F0B50C46154600214A
:1061900000220026076A4FF6FF6C07EA0C07076229
:1061A000C769B9B2076ABAB24FF6FF7707EA0426A1
:1061B0004FF60C7739404FF6FF7707EA03172F4366
:1061C00039434FF2FF573A4046F480773A43C16172
:1061D0000262F0BD826922F440628261826942EA11
:1061E000012282617047F0B50C461546002100225D
:1061F0000026076A4FF6EF7C07EA0C070762816901
:10620000026A4FF6FF7707EA041621F4734141EA68
:10621000033141EA05214FF65F773A4046F0100717
:106220003A4381610262F0BD826922F00C02826110
:1062300082690A438261704770B50C461546002199
:106240000022066A26F0010606628169026A21F0D0
:10625000F30145EA0316314322F00A0244F0010635
:1062600032438161026270BD70B505460C462088DC
:1062700050B92389A28861882846FFF7DDFFE188AD
:106280002846FFF7D1FF25E0208804280AD123897A
:10629000A28861882846FFF7A6FFE1882846FFF715
:1062A00099FF17E0208808280AD12389A2886188ED
:1062B0002846FFF769FFE1882846FFF75CFF09E001
:1062C0002389A28861882846FFF721FFE1882846B4
:1062D000FFF710FF70BD0021018041800121818006
:1062E0000021C180018170472DE9F04105460C462F
:1062F00000260127608808B9022600E00026A08851
:10630000012801D1022700E001272088A0B92389B4
:10631000A28861882846FFF78FFFE1882846FFF7AB
:1063200083FF23893A4631462846FFF75CFFE18820
:106330002846FFF74FFF13E02389A288618828468B
:10634000FFF751FFE1882846FFF744FF23893A46CB
:1063500031462846FFF770FFE1882846FFF764FFC3
:10636000BDE8F0810146486B70470146886B704775
:106370000146C86B70470146086C70470A884B8815
:106380001A438B881A43CB881A430B891A434B89CB
:106390001A438B891A434264704710B5436C23F447
:1063A00072234364436C41EA02442343436410BDB7
:1063B00010B5436C23F03C734364436C41EA0254D0
:1063C0002343436410BD21B1426C42F480524264C5
:1063D00003E0426C22F480524264704721B1426C67
:1063E00042F08072426403E0426C22F080724264A8
:1063F00070470021018041808180C18001814181FD
:106400008181704721B1426C42F40042426403E052
:10641000426CC2F30E024264704721B1426842F0FE
:106420000402426004E042684FF6FB731A40426087
:10643000704721B1426842F00102426004E04268C4
:106440004FF6FE731A404260704710B51AB1C36828
:106450000B43C36004E0C368CC43A4B22340C360D1
:1064600010BD416170470246002013690B4201D004
:10647000012000E000207047CA4392B202617047D9
:1064800030B50246002000230024156905EA010307
:10649000D56805EA010413B10CB1012000E0002029
:1064A00030BDCA4392B20261704741EA0203A0F8CC
:1064B0004830704710B51AB1C3680B43C36004E09D
:1064C000C368CC43A4B22340C36010BD21B142686D
:1064D00042F00802426004E042684FF6F7731A4047
:1064E0004260704781684FF6F872114081607047D2
:1064F0000A460021836899B24FF68F731940114301
:106500008160704730B504460D4629462046FFF7A6
:10651000EFFFA06840F00700A06030BD2DE9F0411A
:1065200004460D4616461F46602D06D13B46012205
:1065300031462046FFF757FE05E03B460122314633
:106540002046FFF779FE29462046FFF7D1FFA068D5
:1065500040F00700A060BDE8F08130B50C46002196
:106560008568A9B2C9B24FF6FF7505EA0325154340
:1065700025432943816030BD2DE9F04105460E4693
:1065800017469846002443463A4631462846FFF7C8
:10659000E4FFA86884B24FF6F870044044F00704A2
:1065A0004FF68F70044044F07004AC60BDE8F08199
:1065B000F0B504460D4616461F463B463246294670
:1065C0002046FFF7CAFFA06840F48040A060F0BDFD
:1065D00042684FF68F731A40426042680A43426035
:1065E0007047426822F47002426042680A43426087
:1065F00070478268214B1A40826082680A43826039
:10660000704782684FF67F731A40826082680A433F
:1066100082607047F0B50C4615461E4600210022E8
:1066200000238768B9B28769BAB2076ABBB24FF66E
:10663000F877394021434FF6FC473A4040F20117C2
:106640003A434FF6DD773B404FF6FF7707EA0617F0
:106650002F433B43816082610362F0BD21B14268F8
:1066600042F08002426004E042684FF67F731A40B5
:1066700042607047A0F8501070470000F8FFFEFF1E
:1066800010B50446B4F1904F09D10121480400F03F
:10669000A2FC00214FF4003000F09DFC3CE070486B
:1066A000844208D10121000200F095FC0021200263
:1066B00000F091FC30E06B48844208D101210002D7
:1066C00000F089FC0021200200F085FC24E06648EF
:1066D000844209D10121080500F07DFC00214FF41E
:1066E000801000F078FC17E06048844208D1012156
:1066F000400200F070FC0021600200F06CFC0BE036
:106700005B48844208D10121880500F064FC002127
:106710004FF4800000F05FFC10BDF0B50A46002188
:106720000023002400BF3DE0012505FA01F31568B0
:1067300005EA03049C4234D11579012D02D0157964
:10674000022D16D185684F000326BE40B5438560F3
:1067500055794E00B54086683543856086880125A9
:106760008D40AE438680868895798D40ADB22E43AC
:10677000868005684F000326BE40B5430560157945
:106780004E00B540066835430560C5684F000326D6
:10679000BE40B543C560D5794E00B540C6683543A7
:1067A000C560491C1029BFD3F0BD4FF6FF710160D1
:1067B000002101710121417100218171C171704776
:1067C0004FF480320A43C261C161C261C269C269C9
:1067D000704702460020138A0B4201D0012000E0DE
:1067E000002070470146088A704702460020938ABD
:1067F0000B4201D0012000E0002070470146888A4A
:10680000704781617047018570470AB1816100E07E
:106810000185704781827047F0B5002300244D0741
:10682000ED0E02FA05F3CE1000F1200555F82650C2
:106830004E07F70E0F26BE40B543CF1000F12006DD
:1068400046F82750CE1000F1200555F8265045EAAD
:106850000304CE1000F1200545F82640F0BD0000ED
:106860000004004800080048000C004800100048E0
:1068700000140048FD48006840F00100FB49086032
:1068800008464068FA490840F849486008460068E8
:10689000F8490840F54908600846006820F480205F
:1068A00008600846406820F4FE0048600846C06A58
:1068B0006FF30D00C8620846006BEF490840EB49D2
:1068C00008630020886070470021E84A91701146F3
:1068D0008870704710B50246002100230020511136
:1068E00011B9E24C23680BE0012902D1DF4C236A85
:1068F00006E0042902D1DD4C636801E0DB4C636AE9
:1069000002F01F0101248C401C4201D0012000E054
:10691000002010BD38B5002000900024002500BFE5
:106920001120FFF7D7FF05460098401C0090009803
:10693000B0F5A06F01D0002DF2D01120FFF7CAFFF3
:1069400008B1012400E00024204638BD01460020A3
:10695000C64A106820F0F80040EAC1001060704795
:10696000C64908607047C149096A21F00101BF4A60
:1069700011621146096A21F0040111621146096A87
:10698000014311627047B949096A21F01801B74AF9
:1069900011621146096A014311627047B8490860E3
:1069A0007047B24A526822F47412B04B5A601A46C9
:1069B000526840EA01031A43AC4B5A607047AF4932
:1069C0000866704701460020A84AD06A20F00F00F0
:1069D0000843D0627047A949C8647047A349C87189
:1069E000704701460020A14A506820F00300084388
:1069F000506070479D48406800F00C0070470146A9
:106A000000209A4A506820F0F00008435060704718
:106A100001460020954A506820F4E0600843506029
:106A2000704701460020914A506820F4605040EAC7
:106A3000C100506070472DE9F0410021002400277B
:106A40008C460023002200250026DFF82082D8F89B
:106A5000048008F00C0121B1042907D0082930D1A5
:106A600009E0DFF82082C0F800802FE0DFF8148210
:106A7000C0F800802AE0DFF8F481D8F8048008F438
:106A80007014DFF8E881D8F8048008F480374FF0FC
:106A9000020808EB944427B9DFF8EC8104FB08F204
:106AA0000DE0DFF8C881D8F82C8008F00F0808F155
:106AB000010CDFF8D081B8FBFCF808FB04F202609F
:106AC00004E0DFF8C081C0F8008000BF00BFDFF83D
:106AD0009C81D8F8048008F0F0010909DFF8AC8146
:106AE00018F80160D0F8008028FA06F8C0F8048091
:106AF000DFF87881D8F8048008F4E061090ADFF84B
:106B00008C8118F80130D0F8048028FA03F8C0F816
:106B10000880DFF85881D8F8048008F46051C90A69
:106B2000DFF8688118F80150D0F8048028FA05F8D9
:106B3000C0F80C80DFF83481D8F82C8008F4F871A4
:106B40000909DFF84C8138F8113013F0100F04D028
:106B5000B2FBF3F8C0F8108003E0D0F80080C0F872
:106B60001080DFF80881D8F82C8008F47851490AA1
:106B7000DFF81C8138F8113013F0100F04D0B2FB8D
:106B8000F3F8C0F8148003E0D0F80080C0F8148057
:106B9000DFF8D880D8F8308008F01008B8F1100F6E
:106BA00004D0DFF8E080C0F8188003E0D0F800805F
:106BB000C0F81880DFF8B480D8F8308008F02008DA
:106BC000B8F1200F04D0DFF8BC80C0F81C8003E0CF
:106BD000D0F80080C0F81C80DFF89080D8F83080B2
:106BE00008F48078B8F5807F0AD1D0F8008090450D
:106BF00006D1B54204D14FEA4208C0F8208003E034
:106C0000D0F80C80C0F82080DFF86080D8F83080A1
:106C100008F40078B8F5007F0AD1D0F800809045DC
:106C200006D1B54204D14FEA4208C0F8248003E0FF
:106C3000D0F80C80C0F82480DFF83080D8F830809D
:106C400018F0030F04D1D0F80C80C0F828803CE085
:106C5000DFF81880D8F8308008F00308B8F1010F89
:106C600018D1D0F80080C0F828802EE00010024033
:106C700000C0FFF8FFFFF6FECCFC000F0000424210
:106C80008004424200127A0000093D00900000207A
:106C9000A0000020DFF8D083D8F8308008F0030887
:106CA000B8F1020F04D14FF40048C0F828800CE07E
:106CB000DFF8B483D8F8308008F00308B8F1030F88
:106CC00003D1DFF8A883C0F82880DFF89C83D8F8C8
:106CD000308018F4403F04D1D0F80880C0F82C80F0
:106CE00028E0DFF88483D8F8308008F44038B8F51D
:106CF000803F04D1D0F80080C0F82C801AE0DFF883
:106D00006883D8F8308008F44038B8F5003F04D1E3
:106D10004FF40048C0F82C800CE0DFF84C83D8F822
:106D2000308008F44038B8F5403F03D1DFF83C83A9
:106D3000C0F82C80DFF83083D8F8308018F4402F6A
:106D400004D1D0F80880C0F8308028E0DFF818833C
:106D5000D8F8308008F44028B8F5802F04D1D0F856
:106D60000080C0F830801AE0DFF8FC82D8F830806C
:106D700008F44028B8F5002F04D14FF40048C0F8BB
:106D800030800CE0DFF8E082D8F8308008F440284A
:106D9000B8F5402F03D1DFF8D482C0F83080DFF897
:106DA000C882D8F8308018F4401F04D1D0F8088089
:106DB000C0F8348028E0DFF8B082D8F8308008F4DA
:106DC0004018B8F5801F04D1D0F80080C0F8348096
:106DD0001AE0DFF89482D8F8308008F44018B8F54B
:106DE000001F04D14FF40048C0F834800CE0DFF8F5
:106DF0007882D8F8308008F44018B8F5401F03D1E5
:106E0000DFF86882C0F83480DFF85C82D8F8308020
:106E100018F4400F04D1D0F80880C0F8388028E07A
:106E2000DFF84482D8F8308008F44008B8F5800FC5
:106E300004D1D0F80080C0F838801AE0DFF828824A
:106E4000D8F8308008F44008B8F5000F04D14FF4AA
:106E50000048C0F838800CE0DFF80C82D8F83080A9
:106E600008F44008B8F5400F03D1DFF80082C0F8FD
:106E70003880BDE8F0810021010F31B17A4AD26A31
:106E800022F47852784BDA6205E0774AD26A22F42B
:106E9000F872754BDA62744AD26A0243724BDA6254
:106EA00070470021010F31B16F4A126B22F02002AE
:106EB0006D4B1A6305E06C4A126B22F010026A4BAC
:106EC0001A63694A126B0243674B1A6370470021C9
:106ED000010F31B1644A126B22F40072624B1A63E3
:106EE00005E0614A126B22F480725F4B1A635E4ABE
:106EF000126B02435C4B1A6370470021010F062995
:106F000027D2DFE801F026030A11181F564A126B38
:106F100022F00302544B1A631CE0534A126B22F412
:106F20004032514B1A6315E04F4A126B22F4402253
:106F30004D4B1A630EE04C4A126B22F440124A4B3E
:106F40001A6307E0484A126B22F44002464B1A6368
:106F500000E000BF00BF444A126B0243424B1A6379
:106F600070474349086070473F49096A01433E4AF8
:106F7000116270473F49086070473F490860704799
:106F80003D49091D0860704729B1374A52690243DB
:106F9000354B5A6104E0344A52698243324B5A619C
:106FA000704729B1304A926902432F4B9A6104E03D
:106FB0002D4A926982432C4B9A61704729B12A4A23
:106FC000D2690243284BDA6104E0274AD26982433E
:106FD000254BDA61704729B1234A926A0243224B5A
:106FE0009A6204E0204A926A82431F4B9A62704779
:106FF00029B11D4AD26802431B4BDA6004E01A4AE9
:10700000D2688243184BDA60704729B1164A126978
:107010000243154B1A6104E0134A12698243124B72
:107020001A61704729B1104A527A02430E4B5A72C4
:1070300004E00D4A527A82430B4B5A7270470A4859
:10704000406A40F08070084948627047014600205D
:10705000054A92680A4201D0012000E000207047F2
:1070600001498872704700000010024000127A0047
:10707000D8004242DC0042423C04424201684FF6E2
:10708000FE72114001600021016041608160C160B9
:107090008C49884208D18B490839496841F00F0171
:1070A000884A083A51608AE086491431884208D1FA
:1070B00084490839496841F0F001824A083A516030
:1070C0007DE080492831884208D17E4908394968E5
:1070D00041F470617B4A083A516070E079493C3173
:1070E000884208D177490839496841F47041754AA6
:1070F000083A516063E073495031884208D17149C0
:107100000839496841F470216E4A083A516056E0E6
:107110006C496431884208D16A490839496841F4A8
:107120007001684A083A516049E0664978318842FE
:1071300008D164490839496841F07061614A083AE8
:1071400051603CE06049884206D1011F096841F066
:107150000F01021F116032E05B491431884208D1EF
:107160005949091F096841F0F001574A121F11607F
:1071700025E055492831884208D15349091F09683B
:1071800041F47061504A121F116018E04E493C31C1
:10719000884208D14C49091F096841F470414A4AA4
:1071A000121F11600BE048495031884207D146490F
:1071B000091F096841F47021434A121F116070478A
:1071C00010B50022026847F6F0739A430C6A8B6888
:1071D00023430C6923434C6923438C692343CC69C3
:1071E00023434C6A23438C6A23431A4302608B89EE
:1071F00043600B6883604B68C36010BD0021016071
:10720000416081608181016141618161C16101628F
:1072100041628162704721B1026842F0010202605E
:1072200004E002684FF6FE731A4002607047416046
:1072300070470146486880B270471AB103680B4333
:10724000036002E003688B4303607047014600203F
:10725000002211F0805F03D01B4B083B1A6802E04C
:10726000184B083B1A680A4201D0012000E00020B8
:10727000704710F0805F03D01349091F086002E0D7
:10728000104908394860704701460020002211F07B
:10729000805F03D00C4B083B1A6802E0094B083BA7
:1072A0001A680A4201D0012000E00020704710F067
:1072B000805F03D00449091F086002E001490839D2
:1072C0004860704708000240080402400CB50020E6
:1072D000019000906A48006840F480306849086076
:1072E00000BF6748006800F4003000900198401C1F
:1072F0000190009818B90198B0F5A06FF1D16048DD
:10730000006810F4003F02D00120009001E000204E
:1073100000900098012835D102205A490860584849
:1073200040685749486008464068486008464068D9
:1073300040F4806048600846406820F47C10486053
:107340000846406840F4E81048600846006840F08D
:107350008070086000BF4A48006810F0007FFAD0D3
:107360004748406820F003004549486008464068A7
:1073700040F00200486000BF4148406800F00C0047
:107380000828F9D10CBD10B53F48006840F47000E2
:107390003D4908603A48006840F0010038490860FB
:1073A0000846406839490840354948600846006841
:1073B00037490840324908600846006820F48020B8
:1073C00008600846406820F4FE0048600846C06A2D
:1073D00020F00F00C8620846006B2E49084028497B
:1073E000086300208860FFF771FF4FF000602649B6
:1073F0008039086010BD30B5002100200022002334
:107400001F4C646804F00C0121B1042906D008293E
:1074100025D107E0204C214D2C6024E01E4C1F4D4F
:107420002C6020E0164C646804F47010144C6468FE
:1074300004F48032022404EB904022B9184C4443F7
:10744000164D2C600AE00E4CE46A04F00F04631C35
:10745000114CB4FBF3F44443104D2C6003E00E4C8C
:107460000E4D2C6000BF00BF054C6468C4F30314CC
:107470000C4D295D094C2468CC40084D2C6030BD72
:10748000001002400020024088ED00E00CC07FF8B0
:10749000FFFFF6FECCFC00FF00127A00BC000020CB
:1074A00000093D00C0000020FD48FE49086070470B
:1074B000FD48006910F0800F04D0FC48FA4948608C
:1074C000FB4848607047F848006940F08000F64982
:1074D000086170470420F449C96811F0010F01D018
:1074E00001200EE0F049C96811F0100F01D0022010
:1074F00007E0ED49C96811F0040F01D0032000E056
:107500000420704700B502460423FFF7E3FF03465B
:1075100003E0FFF7DFFF0346521E012B01D1002AD3
:10752000F7D102B90523184600BD30B5044604253D
:107530004FF43020FFF7E6FF0546042D1ED1DA4850
:10754000C06810F0200F02D02020D749C860D6486C
:10755000006940F00200D4490861084644610069AE
:1075600040F0400008614FF43020FFF7CBFF0546A4
:10757000CD48006920F00200CB490861284630BDA3
:1075800078B506460C460425002000904FF43020C4
:10759000FFF7B8FF0546042D24D1C348006940F029
:1075A0000100C149086134804FF43020FFF7AAFF81
:1075B0000546042D10D1B01C0090200C00990880C5
:1075C0004FF43020FFF79EFF0546B748006920F0D2
:1075D0000100B549086105E0B348006920F00100E9
:1075E000B1490861284678BDF0B504460E461746F5
:1075F000002500BF15E056F825102068FFF7C0FFF2
:1076000004280BD12068006856F82510884201D064
:107610000220F0BD2068001D206001E00120F8E795
:107620006D1CBD4203D22068A2498842E3D90020E4
:10763000EFE730B505460024082408E0281908388B
:107640004005400D02D12846FFF76FFFA41C162C01
:10765000F4DD9548006940F0010093490861082471
:1076600016E000BF9048C06810F0010FFAD19248B0
:10767000015D0246601C105C41EA0020291921F8D6
:10768000080C00BF8848C06810F0010FFAD1A41C94
:10769000162CE6DD8448006920F00100824908616B
:1076A00030BD00200021844A127902F1090000E077
:1076B000401C1C28FCDB804A927A02F080025210A7
:1076C0007D4B5B7A03F0800342EAA3027A4B1B7A7C
:1076D00003F0800342EAE302774BDB7903F0800397
:1076E00042EA2312744B9B7903F0800342EA63124F
:1076F000714B5B7903F0800342EAA3126E4B1B7956
:1077000042EAD3126C4B5A761A46527C02F080023F
:1077100052101B7C03F0800342EAA302664BDB7B22
:1077200003F0800342EAE302634B9B7B03F0800398
:1077300042EA2312604B5B7B03F0800342EA631250
:107740005D4B1B7B03F0800342EAA3125A4BDB7AAA
:1077500042EAD312584B9A761A46127E02F0800201
:107760005210DB7D03F0800342EAA302524B9B7D63
:1077700003F0800342EAE3024F4B5B7D03F080039A
:1077800042EA23124C4B1B7D03F0800342EA631252
:10779000494BDB7C03F0800342EAA312464B9B7CFF
:1077A00042EAD312444BDA76042006E0424A125CE5
:1077B00002F07F02404B1A54401C1828F6DD0420CA
:1077C00003E03D4A125C1144401C1C28F9DBC9430C
:1077D00001F07F02384B1A7770473748407E10F02F
:1077E000010F05D03448007940F08000324908711B
:1077F0003148407E10F0020F05D02F48407940F00C
:1078000080002D4948712C48407E10F0040F05D0AF
:107810002948807940F08000274988712648407EB9
:1078200010F0080F05D02448C07940F080002249AC
:10783000C8712148407E10F0100F05D01E48007A14
:1078400040F080001C4908721B48407E10F0200F59
:1078500005D01948407A40F0800017494872164810
:10786000407E10F0400F05D01348807A40F0800031
:10787000114988721048807E10F0010F05D00E4823
:10788000C07A40F080000C49C8720B48807E10F02E
:10789000020F14D00848007B40F0800006490DE03C
:1078A0000400FA050CED00E00020024023016745CA
:1078B000AB89EFCDFBFF0308620100200873C148CC
:1078C000807E10F0040F05D0BE48407B40F0800061
:1078D000BC494873BB48807E10F0080F05D0B948FA
:1078E000807B40F08000B7498873B648807E10F0F6
:1078F000100F05D0B348C07B40F08000B149C87379
:10790000B048807E10F0200F05D0AE48007C40F0DB
:107910008000AC490874AB48807E10F0400F05D061
:10792000A848407C40F08000A6494874A548C07E25
:1079300010F0010F05D0A348807C40F08000A149E1
:107940008874A048C07E10F0020F05D09D48C07C0E
:1079500040F080009B49C8749A48C07E10F0040F24
:1079600005D09848007D40F08000964908759548FC
:10797000C07E10F0080F05D09248407D40F0800096
:10798000904948758F48C07E10F0100F05D08D4883
:10799000807D40F080008B4988758A48C07E10F059
:1079A000200F05D08748C07D40F080008549C8750C
:1079B0008448C07E10F0400F05D08248007E40F021
:1079C00080008049087670477F4800787F490870BA
:1079D0007D48401C007848707B48801C0078887087
:1079E0007948C01C0078C8707748001D007808717D
:1079F0007548401D007848717348801D0078887173
:107A00007148C01D0078C8716F480830007808724E
:107A10006D480930007848726B480A3000788872E7
:107A200069480B300078C87267480C3000780873DA
:107A300065480D300078487363480E3000788873CD
:107A400061480F300078C873704700B5FFF730FD0C
:107A50005F48FFF76AFD5F48006940F001005D493B
:107A6000086100BF5B48C06810F0010FFAD15748A9
:107A700000785649497840EA01205349088000BF00
:107A80005448C06810F0010FFAD100BF5148C068D7
:107A900010F0010FFAD14D4880784C49C97840EA7E
:107AA00001204949891C088000BF4A48C06810F07D
:107AB000010FFAD100BF4748C06810F0010FFAD19A
:107AC000424800794149497940EA01203E49091D6F
:107AD000088000BF3F48C06810F0010FFAD100BF16
:107AE0003C48C06810F0010FFAD138488079374916
:107AF000C97940EA01203449891D088000BF354812
:107B0000C06810F0010FFAD100BF3248C06810F011
:107B1000010FFAD12D48007A2C49497A40EA012018
:107B200029490831088000BF2A48C06810F0010FB9
:107B3000FAD100BF2748C06810F0010FFAD12348DE
:107B4000807A2249C97A40EA01201F490A31088017
:107B500000BF2048C06810F0010FFAD100BF1D48D7
:107B6000C06810F0010FFAD11848007B1749497B13
:107B700040EA012014490C31088000BF1548C06854
:107B800010F0010FFAD100BF1248C06810F0010FC9
:107B9000FAD10E48807B0D49C97B40EA01200A4991
:107BA0000E31088000BF0B48C06810F0010FFAD1F9
:107BB0000848006920F0010006490861FFF783FCCE
:107BC00000BD000062010020F03F0008F801002025
:107BD000003800080020024010B588B0044601219A
:107BE0004804FFF7D1F901218803FFF7DAF90120F2
:107BF0008DF81C0003208DF81D0000208DF81E005C
:107C00004FF48070069006A94FF09040FEF785FD76
:107C10004FF480714FF09040FEF7F5FD07220921E7
:107C2000C806FEF7F9FD07220A214FF09040FEF743
:107C3000F3FD4FF4C060069002208DF81C00002078
:107C40008DF81E0001208DF81F0003208DF81D0007
:107C500006A94FF09040FEF760FD009400200190CF
:107C60000290039005900C2004906946D348FDF7DC
:107C700080FB252000F096F90121D048FDF708FC93
:107C80000122CF49CD48FDF767FD08B010BD10B502
:107C900004464FF480714FF09040FEF7B2FD00BFF4
:107CA000C6481C30006810F0800FF9D0C348283057
:107CB000048000BFC1481C30006810F0400FF9D0AC
:107CC0004FF480714FF09040FEF79DFD10BD00B560
:107CD0008DB000208DF805008DF8060001208DF88C
:107CE000070001210846FFF74FF9B648FFF7C6F92C
:107CF00002A8FFF783FAB14828300290B2480390F7
:107D0000102004901E20ADF8140000200690802062
:107D100007900020089009904FF400500B9002A9A2
:107D2000A848FFF74DFA01228021A448FDF703FD82
:107D30000121A448FFF76FFA0E208DF8040001A876
:107D4000FDF777FD012202219E48FFF776FA0DB07C
:107D500000BD70B504460D4600209C4908604FF4F4
:107D600080714FF09040FEF74CFD01228021934836
:107D7000FDF7E1FCA9B29348FFF759FA01219148B8
:107D8000FFF749FA012C04D100BF90480068002891
:107D9000FBD070BD10B588B0044601210805FFF77F
:107DA000F3F801214804FFF709F901208DF81C00C0
:107DB00003208DF81D0000208DF81E001020069075
:107DC00006A98348FEF7A9FC10218148FEF71BFD98
:107DD000072205217E48FEF71FFD072206217C4869
:107DE000FEF71AFD6020069002208DF81C0001208D
:107DF0008DF81E008DF81F0003208DF81D0006A9C8
:107E00007348FEF78AFC00940020019002900390D2
:107E100005900C20049069466E48FDF7AAFA2620CA
:107E200000F0C0F801216B48FDF732FB01226449E4
:107E30006848FDF791FC08B010BD00B58DB000207A
:107E40008DF805008DF8060001208DF8070001214E
:107E50000846FFF799F85B483C30FFF70FF902A896
:107E6000FFF7CCF95B48283002905B480390102064
:107E700004901E20ADF8140000200690802007908A
:107E80000020089009904FF400500B9002A94D4833
:107E90003C30FFF795F9012280214E48FDF74BFC5D
:107EA000012148483C30FFF7B6F911208DF8040055
:107EB00001A8FDF7BEFC0122022142483C30FFF739
:107EC000BCF90DB000BD10B5044600204349086060
:107ED00010213F48FEF795FC012280213D48FDF727
:107EE0002AFC1E2137483C30FFF7A1F90121354813
:107EF0003C30FFF790F9012C04D100BF37480068EF
:107F00000028FBD010BD10B54FF40050FFF7BCF9AE
:107F1000E0B14FF48050FFF7CAF900212948FFF77C
:107F20007AF9002280212548FDF705FC00BF23488F
:107F30001C30006810F0400FF9D04FF480714FF002
:107F40009040FEF760FC0120204908604FF480500B
:107F5000FFF7ADF910BD10B54FF00070FFF794F9C1
:107F6000D8B14FF08070FFF7A2F9002115483C30DE
:107F7000FFF751F9002280211648FDF7DCFB00BF16
:107F800014481C30006810F0400FF9D01021104840
:107F9000FEF739FC0120114908604FF08070FFF7AF
:107FA00086F910BD00F01F020121914042094FF0F7
:107FB000E02303EB8202C2F8001170470038014051
:107FC0000501050044000240BC010020E000002043
:107FD000000C004800440040DA010020E4000020CA
:107FE000064C074D06E0E06840F0010394E8070006
:107FF00098471034AC42F6D3FCF7CAF82480000846
:108000004480000802E008C8121F08C1002AFAD103
:1080100070477047002001E001C1121F002AFBD108
:10802000704700004480000800000020E8000000C5
:10803000048000082C810008E800002020050000D2
:108040001480000800000000000000000000000094
:108050000000000000000000000000000000000020
:1080600000000000007F0000000000000000000091
:108070000000000000000000000000000000000000
:1080800000000000000000000000000000000000F0
:1080900000000000000000000000000000000000E0
:1080A00000000000000000000000000000000000D0
:1080B00000000000000000000000000000000000C0
:1080C00000000000000000000000000000000000B0
:1080D000000000000000000001020304010203048C
:1080E000060708090000010002000400060008005D
:1080F0000A000C0010002000400080000001000079
:1081000000A24A0400000000000000000102030475
:108110000607080900000000000000000000000041
:0C81200000000000000000000000000053
:040000050800418925
:00000001FF
